:020000040800F2
:100000007005002049010008110F0008010C0008CC
:100010000D0F0008E7070008F517000800000000B2
:100020000000000000000000000000005D0F00085C
:100030003F080008000000003D0F000801150008FF
:100040006301000863010008630100086301000800
:10005000630100086301000863010008C10A000889
:1000600063010008630100086301000863010008E0
:1000700063010008630100086301000863010008D0
:1000800063010008630100086301000863010008C0
:1000900063010008630100086301000863010008B0
:1000A00063010008630100086301000863010008A0
:1000B0006301000863010008630100086301000890
:1000C0006301000863010008630100086301000880
:1000D000630100086301000863010008811700083C
:1000E000810A000863010008630100086301000839
:1000F0006301000863010008630100086301000850
:10010000630100086301000863010008630100083F
:10011000630100086301000863010008CD160008B0
:10012000630100086301000863010008630100081F
:10013000DFF810D000F014FB0048004759280008F1
:10014000AFF300807005002006488047064800474E
:10015000FEE7FEE7FEE7FEE7FEE7FEE7FEE7FEE777
:10016000FEE7FEE7F91500083101000840EA010347
:100170009B0703D009E008C9121F08C0042AFAD25D
:1001800003E011F8013B00F8013B521EF9D2704721
:100190002DE9FE4F81EA030404F0004421F0004100
:1001A00000944FF0000B23F0004350EA01045ED0AE
:1001B00052EA03045BD0C3F30A54C1F30A552C443A
:1001C000A4F2F3340194A0FB0254C1F3130141F4EF
:1001D0008011C3F3130343F4801301FB024400FBBB
:1001E000034E840A970A44EA815447EA8357A4FBE2
:1001F000076802958D0A05FB07854FEA932C04FBDF
:100200000C542705029D4FEA065847EA1637B5EB0E
:1002100008056EEB070C870E920E47EA811742EA3B
:100220008312A7FB0201B6EB0B0164EB00042B0D5C
:1002300043EA0C335E1844EB1C50DA465146E7FBA8
:100240000201C5F313044FEA0B3343EA14534FEA98
:100250000432019C43EA0603A4F10C040294009CBE
:10026000CDE900B400F06FF903B0BDE8F08F0020D5
:100270000146F9E72DE9F04D81EA030404F0004B53
:1002800021F0004514464FF0000A23F0004150EAE7
:10029000050220D054EA01021DD0C5F30A570246D8
:1002A000C5F31303C1F31300C1F30A5640F48015DC
:1002B00043F48013A7EB0608101BD64608F2FD385E
:1002C00073EB050002D308F1010801E092185B41CD
:1002D000B8F1000F03DA00200146BDE8F08D0020E0
:1002E0004FF48011064684460EE0171B73EB05079A
:1002F00005D3121B63EB050306434CEA010C4908C6
:100300004FEA300092185B4150EA0107EDD152EA02
:10031000030012D082EA040083EA0501084305D0F5
:10032000101BAB4106D20122002306E000224FF051
:10033000004302E06FF0010253101AEB06004CEB91
:10034000085110EB0A0041EB0B01BDE8F04D00F045
:10035000EBB80EB540F2334102910021CDE9001116
:100360000A460B4600F0EFF803B000BD00F0004273
:1003700030F000400AD0C10D01F56071C0F31600E5
:1003800042EA0151C208400711437047002001466C
:100390007047000030B5041E71F1000404DB4FF01B
:1003A0000044404264EB0101141E73F1000405DBBC
:1003B0001C464FF00043524263EB04038B4208BFDC
:1003C000824230BD30B5041E71F1000404DB4FF0F1
:1003D0000044404264EB0101141E73F1000405DB8C
:1003E0001C464FF00043524263EB0403994208BF9E
:1003F000904230BD01F0004330B421F0004150EA9A
:10040000010206D00A0DA2F56072C1F31301002AA1
:1004100002DC30BC00207047440F44EAC104C10034
:10042000E01830BC00EBC25000F047B830B50B46C6
:10043000014600202022012409E021FA02F59D4214
:1004400005D303FA02F5491B04FA02F52844151EE8
:10045000A2F10102F1DC30BD2DE9F05F054600207C
:1004600092469B4688460646814640241BE0284625
:1004700041464746224600F094F953465A46C01A70
:10048000914110D311461846224600F07BF92D1AEF
:1004900067EB01084F4622460120002100F072F967
:1004A00017EB00094E41201EA4F10104DFDC484691
:1004B00031462A464346BDE8F09F0029A8BF704751
:1004C000401C490008BF20F00100704710B4B0FA8A
:1004D00080FC00FA0CF050EA010404BF10BC704725
:1004E00049B1CCF1200421FA04F411FA0CF118BF3F
:1004F000012121430843A3EB0C01CB1D4FEA00610E
:100500004FEA102042BF002010BC704700EBC350E0
:1005100010440029A4BF10BC7047401C490008BF0C
:1005200020F0010010BC704710B5141E73F10004D8
:1005300008DA401C41F1000192185B411A4301D1D5
:1005400020F0010010BD2DE9F04D92469B4611B1FF
:10055000B1FA81F202E0B0FA80F22032904600F067
:1005600011F904460F4640EA0A0041EA0B015346DE
:100570005A46084313D0114653EA010019D0C8F176
:100580004002504600F00DF905460E4650465946C9
:10059000424600F0F7F8084305D0012004E0204669
:1005A0003946BDE8F08D0020054346EAE0762C434D
:1005B00037430A986305E40AA0EB08000022FD0A0D
:1005C00044EA47540A3002D500200146E9E7010514
:1005D00010196941DDE9084500196941BDE8F04D90
:1005E000A2E72DE9FE4F804681EA0300C00F0C46CA
:1005F000009021F0004123F00045B8EB0200A94132
:1006000005D24046214690461C460B46024623F042
:100610000040104347D0270DC7F30A00C3F30A5127
:100620000290401A019040286BDAC3F3130040F4A3
:10063000801B0098924620B10023D2EB030A63EBA3
:100640000B0B01985946C0F14002504600F09AF851
:1006500006460D4650465946019A00F0B2F810EB96
:1006600008006141002487EA115284EAE7731A43C3
:1006700040D0009A62B3019A012A4FEA075215DC72
:10068000001B61EB02014FF0004202EA0752CDE984
:100690000042001C41F5801132462B46FFF753FF04
:1006A00003B0BDE8F08F40462146F9E7001B61EB3F
:1006B0000201001C41F5801300185B412018A2F5CF
:1006C000001747EB030140EAD570B6196D4111E000
:1006D0006D084FEA360645EAC0754FEA0752001B1F
:1006E00061EB0201001C41F5801149084FEA30001E
:1006F0000019514132462B4603B0BDE8F04FFFF7D9
:1007000013BF0098012240000023D0EB020263EBEC
:10071000E073009821464FEAE074B8EB000061EB0B
:100720000401E9E783F000435BE781F0004158E70B
:10073000C1F30A52C1F3130140F2FF3341F48011B7
:100740009A4202DA00200146704740F233439A424F
:10075000A2F2334202DC524200F023B800F012B899
:10076000064C074D06E0E06840F0010394E80700FE
:1007700098471034AC42F6D3FFF7DEFC083200088D
:1007800028320008202A04DB203A00FA02F1002077
:1007900070479140C2F1200320FA03F319439040BF
:1007A0007047202A04DB203A21FA02F0002170472A
:1007B00021FA02F3D040C2F12002914008431946C9
:1007C0007047202A06DBCB17203A41FA02F043EAB1
:1007D000E07306E041FA02F3D040C2F120029140FA
:1007E00008431946704700BFFEE7000010B54FF4FC
:1007F0008071024800F090F910BD0000000801402F
:1008000070B502460B4600254FF6FF71002011E03F
:10081000145C614000240AE001F0010626B1491091
:100820004AF20106714000E04910661CF4B2082C3F
:10083000F2DB401C9842EBD3CDB2284670BD00BF1E
:10084000FEE7000070B50024002569480078012803
:100850007ED16848C57B0F21FFF7D2FF0446AC422A
:1008600077D164480078A528FAD1624840785A28A0
:10087000F6D10120604908700020488010225D49AF
:100880005E48FFF773FC5D48807B012805D15B491A
:1008900088890022022100F063FB5848C0780128B3
:1008A00005D100F0B5F801205549087004E000F0CA
:1008B000CBF802205249087050480079022808D12C
:1008C000002210214F4801F0AFFE00204C49087172
:1008D00002E001204A49087148484079022805D1C0
:1008E00001222021474801F09FFE08E0434840795B
:1008F000012804D100222021424801F095FE3F4802
:100900008079022804D1012240213E4801F08CFE6A
:100910003A48C07902283DD108203B49887100221D
:1009200020213A4801F080FE01228021354801F063
:100930007BFEFFF75BFF0A2001F041FD0122082149
:10094000324801F071FEFFF751FF4FF4FA7001E0F9
:100950004DE04AE001F033FDFFF748FF4FF4FA7035
:1009600001F02DFD00220821284801F05DFE07203E
:10097000254988710A2001F022FDFFF737FF012287
:100980002021224801F050FE4FF4FA7001F017FDCB
:10099000FFF72CFF1948007A02280DD100228103AD
:1009A000184801F041FE4FF4FA7001F008FD0122F1
:1009B000D103144801F038FE1048407A022805D1CE
:1009C0000122C1010F4801F02FFE08E00B48407AD8
:1009D000012804D1002201020A4801F025FE07483F
:1009E000807A002801DDFFF701FF00F0A9FA70BD51
:1009F0000200002038000020160000205E010020C8
:100A000022000020000C01403801002000080140B5
:100A100010B5012211020A4801F006FE00224FF42F
:100A20000051084801F000FE01221103054801F0C1
:100A3000FBFD01229103034801F0F6FD10BD00000B
:100A400000080140000C014010B5012211020A48C3
:100A500001F0EAFD01225103084801F0E5FD012201
:100A60001103064801F0E0FD00224FF480410348E5
:100A700001F0DAFD10BD000000080140000C01404B
:100A800010B54FF4004001F019FDA0B14FF4004142
:100A9000094801F089FE50B908484078401C0749D0
:100AA000487008464078FA2801DBFA2048704FF475
:100AB000004001F0FDFC10BD0010014022000020AC
:100AC00010B5022001F0FAFCE0B1322001F077FC11
:100AD00002210D4801F068FE88B9002201210A4870
:100AE00001F0A2FD00220821084801F09DFD01202F
:100AF0000749487000200749C87003208870022009
:100B000001F0D6FC10BD00000008014000180140B3
:100B10001B0000202200002070B504460D46294627
:100B2000204601F049FE28B901222946204601F05D
:100B30007BFD04E000222946204601F075FD70BDD2
:100B400010B5022001F0F6FA06490880072001F0EE
:100B5000F1FA04494880082001F0ECFA0149888044
:100B600010BD00004401002038B5002400BF08E09B
:100B700000F020F80DF80400C82001F020FC601CF3
:100B8000C4B2032CF4DB9DF800009DF801108842EC
:100B90000AD19DF801009DF80210884204D19DF809
:100BA00000000349087002E0FF200149087038BDC9
:100BB0001A00002070B50024002540210F4801F0E4
:100BC000F3FD08B944F0080480210C4801F0ECFD65
:100BD00008B944F004044FF48071084801F0E4FDC2
:100BE00008B944F002044FF40071044801F0DCFD40
:100BF00008B944F001042546284670BD00100140A4
:100C000000BFFEE710B540F2026002F007F840F2C4
:100C1000036002F003F840F2046001F0FFFF40F2CD
:100C2000056001F0FBFF40F2066001F0F7FF0122D2
:100C30009103B24801F0F8FC01221103AF4801F022
:100C4000F3FC00224FF40051AC4801F0EDFC01220E
:100C5000D103AA4801F0E8FC00220821A84801F0CD
:100C6000E3FC01222021A64801F0DEFC0022012144
:100C7000A34801F0D9FC00220821A24801F0D4FCCD
:100C80004FF48073032210219D4801F037FD4FF48B
:100C9000804303221021994801F030FD4FF4805326
:100CA00003221021954801F029FD4FF4005303223F
:100CB0001021924801F022FD4FF40063032210211D
:100CC0008E4801F01BFD4FF48063032210218B48F6
:100CD00001F014FD4FF40073032248218A4801F00B
:100CE0000DFD4FF4807303224821874801F006FD73
:100CF000802303224821844801F000FD4023032281
:100D00004821814801F0FAFC4FF4004303221021EE
:100D10007A4801F0F3FC4FF40053032248217A484B
:100D200001F0ECFC202303221021754801F0E6FCC1
:100D3000082303221021724801F0E0FC082303225B
:100D400010216E4801F0DAFC1023032219466B488B
:100D500001F0D4FC202303221021684801F0CEFCCE
:100D6000402303221021654801F0C8FC80230322A0
:100D70001021624801F0C2FC4FF48073032210215D
:100D80005E4801F0BBFC4FF40073032210215B4866
:100D900001F0B4FC4FF40043032248215A4801F00B
:100DA000ADFC012303221021554801F0A7FC0823C4
:100DB00003221021534801F0A1FC4FF40043032209
:100DC00010214F4801F09AFC0423032248214D488A
:100DD00001F094FC022303224821494801F08EFCD3
:100DE00001229103454801F01FFC012211034348F1
:100DF00001F01AFC00224FF40051404801F014FCAD
:100E00000122D1033D4801F00FFC002208213C489B
:100E100001F00AFC01222021394801F005FC0022E2
:100E20000121374801F000FC00220821354801F07B
:100E3000FBFB00220821314801F0F6FB00221021C3
:100E40002E4801F0F1FB002220212C4801F0ECFBA0
:100E500000224021294801F0E7FB00228021274899
:100E600001F0E2FB00224FF48071244801F0DCFB2A
:100E700000224FF40071214801F0D6FB00224FF40C
:100E800000411F4801F0D0FB40F2036001F0C6FEB4
:100E90004FF40043032248211B4801F02FFC01229C
:100EA0000221282001F086FD0F21022001F0DAFB4B
:100EB00001220021D00301F09DFA4FF4004001F01F
:100EC000F7FA40F2026001F0A9FE02230322482152
:100ED0000B4801F013FC00220221072001F06AFDFB
:100EE0000121002001F0BEFB01220021022001F0BF
:100EF00081FA022001F0DCFA10BD0000000C014074
:100F000000080140001801400010014000BFFEE74A
:100F100000BFFEE710B5002807DA0A07140E054ADD
:100F200000F00F031B1FD45403E00A07130E024AFC
:100F3000135410BD18ED00E000E400E000BFFEE730
:100F4000002003490870034908700349087070477E
:100F500001000020020000200300002000BFFEE787
:100F60002DE9F04186B007460C46154600264FF0A5
:100F70000108A5208B4908705A20487010208870FD
:100F800089480078C8708948007808718848807955
:100F900048718848C079887187480078C87183484B
:100FA00040780872002081494870084680787D4961
:100FB00048727E48C07888720020C872012C03D124
:100FC0007A48C088888101E07648878175488473B3
:100FD0000F21FFF715FC7349C8731021714800F009
:100FE000B1FB0026012C1ED113E0FFF72BFC734848
:100FF00080896E49C988884206D17048807B022862
:1010000002D14FF0010806E0142001F0D8F9701C5D
:1010100086B2AE42E9DB00BFAE4202DA4FF0010811
:1010200001E04FF000086148C078604989785D4A66
:10103000127A614B1B78CDE90132CDE903105D488E
:10104000C07900905A488379584802785648017808
:101050005BA000F0D1FB58480078022810D100BFF7
:10106000BFF34F8F6048006800F4E0605F490843B9
:10107000001D5D490860BFF34F8F00BF00BFFEE752
:101080004D48007803287DD100220821584801F0FE
:10109000CBFA00221021564801F0C6FA0022202186
:1010A000534801F0C1FA00224021514801F0BCFA36
:1010B000002280214E4801F0B7FA00224FF48071DF
:1010C0004B4801F0B1FA00224FF40071484801F09A
:1010D000ABFA4FF4FA7001F072F9FFF787FB0122C7
:1010E0000821434801F0A0FA01221021404801F0F4
:1010F0009BFA012220213E4801F096FA012240216C
:101100003B4801F091FA01228021394801F08CFA24
:1011100001221102364801F087FA012251023448B7
:1011200001F082FA4FF4FA7001F049F9FFF75EFB23
:101130004FF4FA7001F043F9FFF758FB0022082141
:101140002B4801F071FA00221021294801F06CFAB5
:1011500000222021264801F067FA0022402124487D
:1011600001F062FA00228021214801F05DFA00229C
:101170004FF480711E4801F057FA00224FF40071BD
:101180001B4800E001E001F04FFA01200A49087015
:101190000648C088401C0549C880404606B0BDE8E6
:1011A000F08100004E0100201A00002022000020E3
:1011B00004000020380100200C0000205E01002007
:1011C000414425642C4425642C4625642C44256424
:1011D0002C4625642C43414E25642C504F25642C0D
:1011E0005A4225640D0A00000CED00E00000FA05EB
:1011F000000C01402DE9F04F89B08C488079072818
:1012000005D1012220218A4801F00EFA04E00022D3
:101210002021874801F008FAFFF792FC8549888869
:10122000FFF797F80646844A844BFEF7B1FF044661
:101230000022834BFFF71EF8804689467D49488887
:10124000FFF787F806467C4A7C4BFEF7A1FF044671
:1012500000227B4BFFF70EF882468B4675490888C3
:10126000FFF777F80646744A744BFEF791FF044681
:101270000022734BFEF7FEFFCDE906017148007AAC
:10128000CDE900ABCDE9028904900B466EA0069A29
:1012900000F0B2FA65488079072834D16548408863
:1012A0006249888063494888FFF753F88046624A5C
:1012B000624BFEF76DFF06460022614BFEF7DAFF38
:1012C0000446FFF797F8594908600868FFF74EF899
:1012D00004460022614BFFF75DF803D20220534918
:1012E000C87110E051490868FFF740F80446002231
:1012F0005B4BFFF767F803D205204C49C87102E049
:1013000006204A49C8714B48808856498880494917
:101310008888FFF71EF88046474A484BFEF738FF9B
:1013200006460022464BFEF7A5FF0446FFF762F88B
:101330004C4908600868FFF719F804460022474B3B
:10134000FFF728F803D203204649887111E0454988
:101350000868FFF70BF8044600224FF08043FFF7C0
:1013600031F803D204203F49887102E006203D494C
:10137000887104213C4801F017FA28B101213B484B
:101380008278C01C815404E0002138488278C01C57
:10139000815436488078401C3449887008468078EB
:1013A000022801DD002088703048C07801282BD148
:1013B0002E480079012827D12C484079012823D1D3
:1013C0002A4908700846407801280FD100220121DF
:1013D000174801F029F900220821234801F024F9D7
:1013E00000202349C8700320887010E02048C0788E
:1013F00040F002001E49C8700220887001220821B6
:10140000194801F011F902E0002018490870074856
:101410008079072803D10548C0790449087211482A
:1014200080791049C87109B0BDE8F08F38010020FB
:1014300000080140440100203D0AD7A3703D0A4046
:101440000000B0404E010020252E33662C252E339F
:10145000662C252E33662C25640D0A000000E03F23
:101460000000F83F04000020001801401B0000208D
:101470002200002010B5012291031C4801F0D4F88D
:1014800001221103194801F0CFF800224FF4005156
:10149000164801F0C9F80122D103144801F0C4F83C
:1014A00000220821124801F0BFF801222021104833
:1014B00001F0BAF8002201210D4801F0B5F8002230
:1014C00008210C4801F0B0F807200B498871002072
:1014D0000A4948700870012088700020C880C870D0
:1014E0004FF4FA7000F06BFF10BD0000000C0140DB
:1014F00000080140001801403801002022000020AF
:1015000010B539480088401C374908804FF4005115
:10151000364801F049F9012807D135484088401C78
:10152000334948800120087102E0002030490871E9
:101530002F48408841F28831884222DD012208216B
:101540002C4801F071F8012210212A4801F06CF8B2
:1015500001222021274801F067F801224021254877
:1015600001F062F801228021224801F05DF8012299
:101570001102204801F058F8012251021D4801F0E3
:1015800053F81B4840791A49097988421DD01848F8
:101590000079B8B91648408841F28831884206DDA2
:1015A00041F27070124948800320087006E010482C
:1015B0004088642802DD02200D49087000200C4993
:1015C000488002E000200A4948800948007908491B
:1015D00048710846408841F27071884202DD084631
:1015E0000349488010BD0000140000200010014095
:1015F0000C000020000C014008B53048006840F0A5
:1016000001002E49086000BF2C48006800F002006D
:101610000028F9D000BF2948406840F080002749E1
:1016200048600020009002E00098401C0090009864
:101630005028F9D32148406840F090001F49486085
:101640000020009002E00098401C00900098502874
:10165000F9D300BF1948406820F0030017494860DB
:101660000846006816490840144908600846406862
:10167000144908401149486008460068104908406C
:101680000E4908600846006820F48020086008467B
:1016900040680D4908400949486008460068084903
:1016A0000840064908604FF41F00886001F048FBBD
:1016B00000214FF0006001F0DDF908BD001002408C
:1016C000FFFFF6FE0C00FFE8FFFF00F710B5012159
:1016D000174801F078FC012828D10121144801F0B5
:1016E0006FFC1448408841F2883188421EDA114864
:1016F000007803281AD008210F48FFF70DFA0F4889
:101700000078012804D10D484088401C0B494880CE
:101710000B480079012804D110210748FFF7FCF994
:1017200004E000221021044800F07EFF10BD0000FC
:10173000001400400C000020000C014016000020A6
:101740002200002070B504460D4605E0207800F028
:1017500007F8641C681E85B2002DF7DC70BD000020
:1017600010B504462146054801F087FC00BF07215B
:10177000024801F0D4FC0028F9D010BD0048004018
:1017800010B51749174801F0FAFC28B3154801F0C5
:101790006FFC1549154A127888541448007858B9D6
:1017A000084612490978405CA5280AD10F480078FC
:1017B000401C0E49087004E00C480078401C0B499E
:1017C00008700A480078102809DB012008490870D1
:1017D0000F200649087002E0024801F049FC10BDE4
:1017E00005030500004800403800002001000020EB
:1017F0000200002000BFFEE70FB4054B10B503A99F
:10180000044A029800F0DAF810BC5DF814FB0000FE
:10181000D52400083400002002E008C8121F08C1C7
:10182000002AFAD170477047002001E001C1121F61
:10183000002AFBD1704700002DE9FF5F82B0002134
:10184000DDE90430020DDDF840B0034318D044F662
:101850001050A2F2FF3242431514119801281FD0F4
:10186000A5EB0B00401C5FEA000A4FF000064E4F4C
:10187000DFF83891B046504615D5CAF1000413E0A0
:10188000119801244AA3012801D16FEA0B010298A3
:10189000119AC0E90031C0E9024206B0BDE8F09FEC
:1018A000CBF10000DFE704460021404A491842EB33
:1018B0000450CDE9001012E0E00707D032463B4665
:1018C00040464946FEF764FC8046894632463B4620
:1018D00010461946FEF75CFC06460F466410002CC5
:1018E000EAD1DDE90401DDE90023BAF1000F06DAEF
:1018F000FEF74EFC42464B46FEF74AFC05E0FEF77B
:10190000B9FC42464B46FEF7B5FC04460E460022A3
:10191000284BFEF757FD03D84FF0FF30014607E094
:101920000022254B20463146FEF75BFEFEF700FF06
:10193000102409E0002C0ADB0A220023FEF78CFDAC
:10194000039B30321A55641E50EA0102F2D1641C26
:10195000039AC4F111031444119A012A03D00122FD
:1019600008430DD10AE0084304D000204FF0110BCA
:10197000119072E7A3EB0B056D1E0DE05B4504DDD6
:101980004FF0000205F1010504E003DA4FF0000218
:10199000A5F10105002AECD002981199C0E90231A5
:1019A000C0E9004579E70000000014400000F03F66
:1019B000300000000000F0430000E03F2DE9FF4F41
:1019C00095B09A46884606460025EEE1252877D14F
:1019D00000242746F94A0121039400E0044316F845
:1019E000013F203B01FA03F01042F7D130782A285A
:1019F00011D06FF02F033078A0F13002092A16D8E9
:101A0000039A44F0020402EB820203EB4202104408
:101A1000761C0390EFE758F8042B0392002A03DAB0
:101A2000504244F40054039044F00204761C307891
:101A30002E2816D116F8010F44F004042A280DD0E0
:101A40006FF02F023078A0F13003092B09D807EB93
:101A5000870302EB4303C718761CF3E758F8047BAF
:101A6000761C30786C280FD006DC4C2817D06828FC
:101A70000DD06A2814D104E0742810D07A280FD130
:101A80000DE044F400140AE044F4801401E044F44E
:101A900040147278824202D104F58014761C761CC0
:101AA000307866280BD013DC582877D009DC002862
:101AB00075D04528F6D04628F4D047281AD193E1AE
:101AC00018E0632835D0642879D0652812D18BE1DD
:101AD000702873D008DC6728F1D069286FD06E2891
:101AE0000DD06F2806D1ACE073282CD0752874D0A7
:101AF000782853D05246179990476D1C54E1C4F38F
:101B00000250022809D003280DD0D8F8001004286C
:101B10000DD00D6008F1040846E1D8F80010EA176E
:101B2000C1E90052F6E7D8F800100D80F2E70D7019
:101B3000F0E718F8041B8DF8001000208DF8010064
:101B4000EB46012003E058F804BB4FF0FF3061077B
:101B50004FF0000102D40DE009F101018946B942BC
:101B60000FDA8145F8DB1BF809100029F4D108E0F1
:101B700009F1010189468142FADB1BF809100029AD
:101B8000F6D103985346A0EB090721463846179A29
:101B900000F080FA284400EB090507E044E008E182
:101BA0000DE01BF8010B524617999047B9F1010956
:101BB000F7D2534621463846179AF2E039E00A2117
:101BC000C4F302524FF0000B0091022A06D058F8DD
:101BD000040BC117032A09D00AE023E008F107002B
:101BE00020F00702F2E80201904605E000B2C117BA
:101BF000042A01D140B2C117002906DA0A460021A1
:101C0000404261EB02012D2202E0220504D52B2285
:101C10008DF80420012203E0E20701D02022F7E73B
:101C2000914657E00A2100E010214FF0000B00918F
:101C30000BE010214FF0000B44F004040827009142
:101C400003E008204FF0000B0090C4F30252022A78
:101C500005D058F8040B0021032A08D008E008F149
:101C6000070020F00702F2E80201904603E080B28C
:101C7000042A00D1C0B24FF0000922072AD53278D9
:101C8000702A07D0DDF800C08CF0100C5CEA0B0C59
:101C900005D00EE040228DF80420012208E050EA31
:101CA000010306D030238DF804308DF80520022280
:101CB0009146009B83F0080353EA0B030AD150EAD4
:101CC000010201D1620705D530228DF804204FF0C2
:101CD00001097F1E3278582A04D039A20C920CAA2E
:101CE00002920BE03BA2F9E75B46009AFEF7B4FBD9
:101CF0000C9B9B5C029A521E0292137050EA0102E6
:101D0000F2D1029804A9081A00F1200B600702D54D
:101D100024F4803400E001275F4502DDA7EB0B00CF
:101D200000E0002000EB0B01009003984944401AAA
:101D30000390E00306D453462146179A039800F017
:101D4000A9F90544002706E001A85246C05D17998D
:101D500090476D1C7F1C4F45F6DBE0030CD55346C6
:101D60002146179A039800F095F9054404E03020C5
:101D70005246179990476D1C0099481E0090002903
:101D8000F5DC08E00298029952460078491C02915D
:101D9000179990476D1CBBF10001ABF1010BF1DC11
:101DA0005BE100F065F90544761C307800287FF48B
:101DB0000DAE19B02846BDE8F08F000009280100DB
:101DC00030313233343536373839616263646566B1
:101DD0000000000030313233343536373839414273
:101DE0004344454600000000600700D4062708F180
:101DF000070020F00700F0E80223804603F0004CC3
:101E00005FEA0C0001D097A009E0200501D596A05B
:101E100005E0E00701D095A001E0AFF24C0013907F
:101E2000307823F0004365280CD006DC452809D023
:101E300046281DD047287FD13BE0662818D0672868
:101E40007AD136E00021112F01DB112000E0781C4F
:101E5000CDE9000104A90CA8FFF7EEFCDDE90D01B6
:101E60000C9A4FF0000B07F10109109200914EE01F
:101E70004FF000400097CDE9011004A90CA8FFF72E
:101E8000DBFCDDE90D020C9B0F994FF0000B914636
:101E90001093009211B9791C00EB0109B7EB09000E
:101EA00003D4C0F1FF3B07F10109A9EB0700019042
:101EB00042E0012F00DA01270021112F01DD11205E
:101EC00000E03846CDE9000104A90CA8FFF7B4FCF6
:101ED000DDE90D010C9A00914FF0000BB94610920C
:101EE00021070FD4009A4A4503DA914601E0A9F18F
:101EF0000109B9F1010F05DD109AA9F10101515C49
:101F00003029F4D0B84202DA10F1040F03DA0121CB
:101F1000CDE9011010E0002803DC8344A9EB0001A7
:101F200002E0411C494500DD8946A0EB0B00401C46
:101F300001904FF000400290200705D401984845D9
:101F400002DB4FF0FF30019000208DF84B0002982B
:101F50000DF14B07B0F1004F25D002200C902B2043
:101F60000D90029800280CDA404202902D200D902E
:101F700007E00A210298FEF759FA3031029007F87B
:101F8000011D0C99481E0C900029F2DC02980028D3
:101F9000EFD1791E0D980870307800F0200040F0E5
:101FA000450007F8020D11A8C01BC01D0290139830
:101FB000007800B1012000EB0901019801EBE0710C
:101FC000029801440398401A401E0390E00306D48F
:101FD00053462146179A039800F05CF8054413987D
:101FE000007818B15246179990476D1CE00323D52D
:101FF00053462146179A039800F04CF805441BE01D
:10200000BBF1000F07DB0098584504DD10981799C5
:1020100010F80B0001E017993020524690470198C4
:102020000BF1010B401E05F10105019004D12E209A
:102030005246179990476D1CB9F10001A9F10109A9
:10204000DEDC05E017F8010B5246179990476D1C2E
:102050000299481E02900029F4DC53462146179A43
:1020600003989EE62D0000002B00000020000000D9
:102070002DE9F041044600251E461746880404D485
:1020800005E039462020B0476D1C641EF9D528466E
:10209000BDE8F0812DE9F041044600251E4690463A
:1020A000C80301D5302700E02027880404D505E0C7
:1020B00041463846B0476D1C641EF9D52846BDE838
:1020C000F081816841F00801816000BF816801F002
:1020D00008010029FAD1816841F00401816000BF44
:1020E000816801F004010029FAD1704730B5012957
:1020F00002D002291AD10CE0C36A23F47003C36230
:10210000C36A541E4FF4700505EA04542343C362A6
:102110000DE0836B23F440138363836B541E4FF4F1
:10212000401505EA04542343836300E000BF00BF69
:1021300030BD000010B504460623224600210B489E
:1021400000F0D4F80121094800F02AF900BF02216B
:10215000064800F0B5F80028F9D00221034800F045
:10216000ABF8024800F018F910BD0000002401404F
:1021700010B500F041FD00F05DFA124800F030F8B3
:10218000002000F0A5F800210E4800F01DF8012203
:1021900011460C48FFF7AAFF4FF4602201210948BD
:1021A00000F072F801221146064800F04EF805488A
:1021B00000F042F8022000F002F90248FFF781FF28
:1021C00010BD00000024014021B1826842F4006289
:1021D000826003E0826822F400628260704700003F
:1021E00010B504461348204430B1B0F5806F0CD0D0
:1021F000B0F5C05F1BD111E040F2093000F02EFDB8
:1022000040F2093000F01AFD12E040F20A3000F00E
:1022100025FD40F20A3000F011FD09E040F20F30D8
:1022200000F01CFD40F20F3000F008FD00E000BFA0
:1022300000BF10BD00DCFEBF816801F0010119B9CB
:10224000816841F001018160704772B101F00103C2
:102250001BB1836843F48013836001F0020393B1E0
:10226000836843F4004383600DE001F001031BB178
:10227000836823F48013836001F002031BB1836839
:1022800023F4004383607047012902D0022910D152
:1022900007E0836823F460238360836813438360CB
:1022A00008E0836823F4E04383608368134383601A
:1022B00000E000BF00BF704702688A4302607047B9
:1022C0000246002013680B4003B101207047000054
:1022D0000549096821F47021034A11601146096813
:1022E000014311607047000004240140F0B51D4611
:1022F00006290CDA436B01EB81071F26BE40B3436E
:1023000001EB810602FA06F63343436322E00C290F
:102310000EDA036B8E1F06EB86071F26BE40B34303
:102320008E1F06EB860602FA06F63343036311E0BE
:1023300010290FDAC36AA1F10C0606EB86071F26E7
:10234000BE40B343A1F10C0606EB860602FA06F680
:102350003343C3620A2A0CDA046902EB42070726F8
:10236000BE40B44302EB420605FA06F6344304616C
:1023700011E0122A0FDAC468A2F10A0606EB46073A
:102380000726BE40B443A2F10A0606EB460605FA4C
:1023900006F63443C460F0BD0146C86C80B2704795
:1023A00001F001021AB1826842F48002826001F0F9
:1023B00002021AB1826842F400128260704730B59E
:1023C0000446002500BF04E040F22E4000F004F86F
:1023D0006D1CA542F8D330BD0021002200BF05E0EE
:1023E000002200E0521C172AFCD3491C8142F7D37B
:1023F0007047000010B52D4B1B6883432B4C2360A6
:10240000231D1B688343241D2360231D1B688343F6
:10241000241D2360231D1B688343241D236011B1E9
:1024200001290ED105E0214B1B6803431F4C23609B
:1024300008E01E4B1B1D1B6803431C4C241D23601E
:1024400000E000BF00BF32B1012A11D0022A1CD027
:10245000032A27D127E0154B08331B680343134C8D
:1024600008342360231D1B688343241D23601BE065
:102470000E4B08331B6883430C4C08342360231D28
:102480001B680343241D23600EE0084B08331B68C0
:102490000343064C08342360231D1B680343241D9B
:1024A000236001E000BF00BF00BF10BD0004014079
:1024B00001490860704700001404014001460448C7
:1024C0000068084008B1012070470020FCE70000C8
:1024D0001404014070B504460D46E1B2054800F011
:1024E000CCFD00BF0721034800F019FE0028F9D0F9
:1024F000204670BD0038014010B540F2026000F087
:102500008DFB40F20E6000F089FB4FF40073032254
:102510001821174800F0F2F84FF4806303220421D9
:10252000134800F0EBF8134800F0ACFD4FF4E13134
:10253000104800F055FD00210E4800F05CFE00211F
:102540000C4800F048FE00210A4800F034FE00214B
:10255000084800F0FDFD0021064800F0EFFD0821CD
:10256000044800F040FE034800F0D4FD10BD000018
:10257000000801400038014010B500221146272014
:1025800000F018FA40F2046000F048FB4FF4C0601D
:1025900000F044FB40F2127000F040FB4FF4806307
:1025A000032218211D4800F0A9F84FF4006303220C
:1025B00004211A4800F0A2F80121194800F004F99A
:1025C000184800F05FFD4FF4E131164800F008FDB7
:1025D0000021144800F00FFE0021124800F0FBFD1E
:1025E0000021104800F0E7FD00210E4800F0B0FD8A
:1025F00000210C4800F0A2FD04210A4800F0E3FD90
:102600000821084800F0EFFD064800F083FD40F285
:102610000531044800F0A6FD10BD00000010014087
:1026200010001400004800400AB1016100E041615F
:102630007047000010B5042303220021074800F072
:102640005DF8802303220021044800F057F801239D
:1026500003220021024800F051F810BD000801409B
:10266000000C014010B500228B071C0F0F2303FA4A
:1026700004F204290EDA204B9B6893431E4CA3609E
:1026800023469B688C07240F00FA04F423431A4C5A
:10269000A3602FE008290EDA174BDB689343164C32
:1026A000E3602346DB688C07240F00FA04F423431D
:1026B000114CE3601EE00C290EDA0F4B1B699343AB
:1026C0000D4C236123461B698C07240F00FA04F488
:1026D0002343094C23610DE0074B5B699343064C90
:1026E000636123465B698C07240F00FA04F42343DB
:1026F000014C636110BD000000000140F0B50446CC
:1027000016460025002201F00F0501F0100707B161
:10271000354300201EE0012787401F40C7B12268D3
:102720004FEA800C0F2707FA0CF7BA43870005FA27
:1027300007F73A43282904D1012787401F406761E2
:1027400005E0482903D1012787401F402761226007
:10275000471CB8B20828DED3082022E001278740B2
:102760001F40E7B16268A0F108074FEA870C0F2706
:1027700007FA0CF7BA43A0F10807BF0005FA07F7FC
:102780003A43282904D1012787401F40676105E0AB
:10279000482903D1012787401F4027616260471CF9
:1027A000B8B21028DAD3F0BD02469068084008B1EC
:1027B000012070470020FCE70246D068084008B1BD
:1027C000012070470020FCE7F0B50A4600230024F2
:1027D0000021002500F00046B6F1004F02D11D4E49
:1027E000F16901E01B4E7168C0F3034583B200F448
:1027F0004016B6F5401F08D121F07061154E76687D
:1028000026F07066134F7E6012E000F48016B6F575
:10281000801F06D1032606FA05F4A14341F070613A
:1028200006E0460D360103FA06F6B14341F0706149
:1028300022B1460D360103FA06F6314300F0004698
:10284000B6F1004F02D1034EF16101E0014E71601B
:10285000F0BD0000000001404FF4C06000F0DEF960
:1028600001213C48FFF7B0FFFEF7CCF9FEF702FE6E
:10287000FFF742FEFFF780FEFFF77AFC00F064FAF4
:1028800000F08AFAFEF770F9002000F023F9044600
:10289000214631A0FEF7B0FF012000F01BF90446ED
:1028A000214631A0FEF7A8FF022000F013F90446EC
:1028B000214631A0FEF7A0FF032000F00BF90446EB
:1028C000214631A0FEF798FF3348C07840F0010060
:1028D0003149C870002208213048FFF7A5FE0122C7
:1028E00011462F48FFF7A0FE33E02E480088B0F5D0
:1028F0007A7F11DD00202B490880FEF77BFC0A223D
:10290000012129480088FEF72BFB28B90A22012162
:1029100025480088FEF724FBFDF794FF23484088F4
:10292000B0F5167F15DB00201B49087100224FF41B
:1029300000411F48FFF778FE4FF4FA70FFF73FFDA4
:102940000122D1031A48FFF76FFE002017490870D3
:102950004880CAE7000230000D0A434B5F535953C9
:1029600020697320256400000D0A434B5F414842F3
:1029700020697320256400000D0A434B5F415042DB
:1029800031206973202564000D0A434B5F4150429A
:1029900032206973202564002200002000180140C5
:1029A0000008014014000020120000201600002042
:1029B000000C01402DE9F04103460D461646002467
:1029C0000027A0462448006800F4E060B0F5A06F3E
:1029D00015D006DCB0F5407F18D0B0F5806F19D166
:1029E00010E0B0F5C06F06D0B0F5E06F12D100274F
:1029F0004FF0040815E001274FF0030811E002270B
:102A0000B8460EE003274FF001080AE004274FF014
:102A1000000806E04FF4A06000F022F80227B84654
:102A200000BF00BFC7F1040005FA00F4C8F10401BB
:102A30000F20C8403040044324010848C45403F028
:102A40001F01012088405911890001F1E021C1F8DE
:102A50000001BDE8F08100000CED00E000E400E0C2
:102A600002490143024A1160704700000000FA0564
:102A70000CED00E0034A0A400243034B1A60BFF327
:102A80004F8F704780FFFF1F08ED00E00F4A51682D
:102A90000F4A1140082814D2DFE800F004050607A9
:102AA000130A130B00BF00BF00BF41EA803109E0E9
:102AB00000BF20F004004FF0805242EA8032114300
:102AC00000E000BF00BF014A5160704700100240A3
:102AD000FF3FFFEF2DE9F04F8BB007460020099034
:102AE0003EA090E8004CC068CDE905BECDF810A02E
:102AF00007900FF2EC0ADAE9000ACDE9020A0FF2B8
:102B0000E00ADAE9000ACDE9000A38484068C0F373
:102B100081000A900A9820B1012804D0022829D106
:102B200003E0334928E0324926E03048406800F4A9
:102B30008038B8F5803F09D12D4C2C48406800F40E
:102B40000039B9F5003F02D1641000E0294C274854
:102B50004068C0F383422548406800F0006008B137
:102B600042F010020F2A01D2921C00E0521C04FB1A
:102B700002F101E01E4900BF00BF1C484068C0F3DD
:102B8000031504A8465D21FA06F318484068C0F30F
:102B9000022502A8465D23FA06FC14484068C0F3EB
:102BA000C2251DF8056023FA06F0089037B1012F01
:102BB00006D0022F06D0032F0AD106E0099108E0C3
:102BC000099306E0CDF824C003E00898099000E0DE
:102BD00000BF00BF09980BB0BDE8F08F00000000F7
:102BE000000000000102030406070809001002406B
:102BF00000127A0000093D0010B540F2026000F0BA
:102C00000DF840F2036000F009F840F2096000F0AE
:102C100005F80320FFF73AFF10BD0000064A02EB5B
:102C20009011096800F01F0301229A401143024BE2
:102C300003EB90121160704700100240064A02EB4D
:102C40009011096800F01F0301229A409143024B42
:102C500003EB90121160704700100240064A02EB2D
:102C60009011096800F01F0301229A401143024BA2
:102C700003EB901211607047001002400020002109
:102C80002C4A126842F480322A4B1A6000BF401C62
:102C9000284A126802F4003119B94FF6FF729042C7
:102CA000F5D1244A126802F400320AB900BFFEE7E7
:102CB000204A52681F4B5A601A4652685A601A4698
:102CC000526842F480625A601A46526822F44032D6
:102CD0005A601A46526842F440325A601A465268A4
:102CE000154B1A40134B5A601A465268134B1A433D
:102CF000104B5A601A46126842F080721A6000BF88
:102D00000C4A126802F00072002AF9D0094A52688F
:102D100022F00302074B5A601A46526842F0020240
:102D20005A6000BF034A526802F00C02082AF9D127
:102D30007047000000100240FFFFC3F700002808A2
:102D400010B5FFF79BFF10BD10B5124800684FF497
:102D50007A71B0FBF1F4601EB0F1807F01D30120E5
:102D60000FE0601E4FF0E02148610F214FF0FF306F
:102D7000FEF7D0F800204FF0E021886107200861BD
:102D8000002008B100BFFEE70021481EFEF7C2F890
:102D900010BD0000300000201FB5012200213720A7
:102DA000FFF708FE40F20570FFF738FF0F4800F00C
:102DB0001FF84DF2F020ADF800000020ADF8020041
:102DC000ADF804004FF47A7002900020ADF80C00CA
:102DD0008DF80E006946054800F07EF80121034891
:102DE00000F0EAF8014800F071F81FBD001400403F
:102DF00010B504463349601A8C4244D00CDCB4F15F
:102E0000804F1CD03048204410B3B0F5806F28D0DC
:102E1000B0F5006F52D12DE0B0F5806F3CD0B0F529
:102E20008E3F03D0B0F5923F48D13EE040F20B30E8
:102E3000FFF714FF40F20B30FFF700FF3FE04FF4C5
:102E40008060FFF70BFF4FF48060FFF7F7FE36E07E
:102E500040F20140FFF702FF40F20140FFF7EEFEB3
:102E60002DE040F20240FFF7F9FE40F20240FFF78A
:102E7000E5FE24E040F20340FFF7F0FE40F203409D
:102E8000FFF7DCFE1BE040F20440FFF7E7FE40F2F4
:102E90000440FFF7D3FE12E040F20540FFF7DEFEEC
:102EA00040F20540FFF7CAFE09E040F20D30FFF79F
:102EB000D5FE40F20D30FFF7C1FE00E000BF00BFBD
:102EC00010BD00000010004000FCFFBF016841F091
:102ED00001010160704700000A888262294A90421D
:102EE00020D0B0F1804F1DD0274A90421AD0274AF7
:102EF000904217D0264A904214D0264A904211D0D0
:102F0000254A90420ED0254A90420BD0244A904246
:102F100008D0244A904205D0234A904202D0234A46
:102F200090420FD1026822F07002026002688B7832
:102F300003F060031A43026002680B7903F0100388
:102F40001A4302608A68C262194A90420CD0194A38
:102F5000904209D0026822F44072026002688B89B4
:102F600003F440731A430260064A904202D0094AB1
:102F7000904201D18A7B0263426942F001024261C0
:102F800070470000002C0140000400400008004091
:102F9000000C004000340140004C01400050014052
:102FA0000054014000180040001C00400020004078
:102FB0000010004000140040C2680A43C26070471D
:102FC000CA43026170470246D06800EA01031069F3
:102FD000084010B10BB1012070470020FCE7000051
:102FE0002DE9F04704460D460027B846B9460026AD
:102FF0001D49601A8C421CD006DC1C48204470B16C
:10300000B0F5806F1FD10FE0B0F5806F16D0B0F52E
:103010006C4F18D10320FFF75DFD074614E0022036
:10302000FFF758FD07460FE00220FFF753FD074664
:103030000AE00220FFF74EFD074605E00220FFF7F9
:1030400049FD074600E000BF00BF07EB5500B0FB9D
:10305000F5F64FF6F07006EA000806F00F0948EAA8
:103060000900A060BDE8F087004C004000BCFFBF35
:1030700001464868C0F308007047C1F30802426087
:103080007047000010B504462049601A8C4228D0D1
:1030900006DC1F48204490B1B0F5806F33D117E0B3
:1030A000B0F5806F26D0B0F56C4F2CD140F20E30C9
:1030B000FFF7D4FD40F20E30FFF7C0FD24E040F2F0
:1030C0001140FFF7CBFD40F21140FFF7B7FD1BE0C9
:1030D00040F21240FFF7C2FD40F21240FFF7AEFD92
:1030E00012E040F21340FFF7B9FD40F21340FFF742
:1030F000A5FD09E040F21440FFF7B0FD40F2144096
:10310000FFF79CFD00E000BF00BF10BD004C004079
:1031100000BCFFBFC16841F40051C160704710B5E9
:10312000024602EB9110006801F01F040123A34046
:10313000184008B1012010BD0020FCE7426922F4CC
:1031400000724261426901F400731A4342617047A0
:10315000426922F480724261426901F480731A4329
:103160004261704710B5C1F38912825801F01F0403
:103170000123A3401A43C1F38913C25010BD70B597
:10318000024600230024C1F38910105801F01F06E5
:103190000125B54000EA050302EB91500068C1F338
:1031A00004460125B54000EA050414B10BB1012025
:1031B00070BD0020FCE7C26822F4C062C260C26831
:1031C0000A43C26070470A460021C16821F0040129
:1031D0001143C1607047026922F4405202610269E2
:1031E0000A43026170470A460021C16821F00801C4
:1031F0001143C1607047C26822F48052C260C26845
:103200000A43C26070470000283200080000002016
:10321000380000001818000860320008380000204C
:103220003805000028180008000000000000000019
:10323000000000000000000000000000000000008E
:10324000000000000000000000000000000000007E
:10325000000000000000000000F36F060000000006
:0400000508000131BD
:00000001FF
